:020000040800F2
:1000000088090120B10100080B1B0008C716000871
:10001000091B000873030008A71E00080000000069
:10002000000000000000000000000000D91C0008D3
:1000300025040008000000000D1B0008DB1C000860
:10004000CB010008CB010008CB010008CB01000860
:10005000CB010008CB010008CB010008CB01000850
:10006000CB010008CB010008CB010008CB01000840
:10007000CB010008CB010008CB010008CB01000830
:10008000CB010008CB010008CB01000800000000F4
:10009000000000000000000000000000CB0100088C
:1000A000CB010008CB010008CB010008CB01000800
:1000B000811D0008CB010008CB010008CB0100081E
:1000C000CB010008CB010008CB010008CB010008E0
:1000D000CB010008CB010008CB01000800000000A4
:1000E000CB010008CB010008CB0100080000000094
:1000F000000000000000000000000000CB0100082C
:1001000000000000CB010008CB010008CB01000873
:1001100000000000000000000000000000000000DF
:10012000CB010008CB01000875030008CB010008D3
:10013000CB010008000000000000000000000000EB
:10014000000000000000000000000000CB010008DB
:10015000CB010008CB010008CB010008CB0100084F
:10016000CB010008CB0100080000000000000000E7
:10017000000000000000000000000000000000007F
:1001800000000000CB01000800000000000000009B
:10019000CB010008CB010008DFF810D000F0ACF86C
:1001A00000480047BDF60108AFF300808809012030
:1001B0000648804706480047FEE7FEE7FEE7FEE701
:1001C000FEE7FEE7FEE7FEE7FEE7FEE7711D00083B
:1001D000990100082DE9F05F0546002092469B46F4
:1001E00088460646814640241BE02846414647464D
:1001F000224600F071F853465A46C01A914110D376
:1002000011461846224600F058F82D1A67EB0108EF
:100210004F4622460120002100F04FF817EB00095D
:100220004E41201EA4F10104DFDC484631462A4637
:100230004346BDE8F09F40EA01039B0703D009E075
:1002400008C9121F08C0042AFAD203E011F8013BC2
:1002500000F8013B521EF9D27047D2B201E000F81B
:10026000012B491EFBD270470022F6E710B513465A
:100270000A4604461946FFF7F0FF204610BD421C0F
:1002800010F8011B0029FBD1801A704710B500221D
:1002900000E0521C835C8C5CA34201D1002BF8D19E
:1002A000D8B2E1B2401A10BD034611F8012B00F894
:1002B000012B002AF9D118467047202A04DB203A86
:1002C00000FA02F1002070479140C2F1200320FAA9
:1002D00003F3194390407047202A04DB203A21FAA7
:1002E00002F00021704721FA02F3D040C2F120024F
:1002F0009140084319467047064C074D06E0E068F8
:1003000040F0010394E8070098471034AC42F6D35C
:10031000FFF746FFF08A0208108B020870B58C18B0
:1003200010F8015B15F0070301D110F8013B2A1109
:1003300006D110F8012B03E010F8016B01F8016BF6
:100340005B1EF9D12B0705D40023521E0DD401F8F2
:10035000013BFAE710F8013BCB1A921C03E013F8BB
:10036000015B01F8015B521EF9D5A142D8D30020F0
:1003700070BDFEE7014800F059B800006C02002093
:1003800001681823CAB2103AB2FBF3F2054B6FF3BF
:100390000901032A9B5CC36500D9091D81650846D4
:1003A000704700003844020810B5014600208B69F0
:1003B0008A6A4FF0C07453B1B3F5005F15D072B1C3
:1003C000012A0CD0022A0AD0032A09D104E01AB16A
:1003D000012A06D0022A03D1C96AC90100D5012029
:1003E00010BDC96AA142FAD010BD002AF7D0012A77
:1003F000F2D0022AF3D0032AF3D010BD30B504683E
:10040000256825F480252560046863608368402B97
:10041000036803D099600068C26030BD9A600068CC
:10042000C16030BD704772B6FEE700002DE9F843A9
:1004300004464FF00009CDF8009063484FF4165180
:10044000A56D0068B0FBF1F72E6894F85C100820E9
:1004500000FA01F131420FD021680A6852070BD52A
:100460000A6822F004020A6094F85C108840A860D0
:10047000606D40F00100606594F85C104FF0010879
:1004800008FA01F0304208D021684969090604D50C
:10049000A860606D40F00200606594F85C10042074
:1004A0008840304208D021680968890704D5A860CF
:1004B000606D40F00400606594F85C101020884086
:1004C000304218D021680968090714D5A86020684F
:1004D0000168490304D50068000308D5A16C07E052
:1004E0000168C90503D4016821F008010160216C8D
:1004F00009B12046884794F85C102020884030429B
:1005000031D021680968C9062DD5A86094F8350056
:1005100005282068016806D0490347D50068000314
:100520001DD4616C1CE021F0160101602068416956
:1005300021F080014161206C08B9A06C20B12068D5
:10054000016821F00801016094F85C103F208840A8
:10055000A86084F8358084F83490216D1FE0E16B49
:1005600009B120468847606D00282BD0606DC00718
:1005700014D0052084F835002068016821F00101BD
:1005800001600098401C0090B84203D820680068C1
:10059000C007F6D184F8358084F83490E16C0029E6
:1005A00010D001B02046BDE8F04308470168C905F6
:1005B000D5D4016821F01001016084F8358084F8F9
:1005C0003490CCE7BDE8F8830C0000202DE9F04121
:1005D000044600F0A5F906465CB1022084F8350017
:1005E000002584F834502068016821F00101016081
:1005F0000DE00120BDE8F08100F092F9801B052894
:1006000005D920206065032084F83500F2E72068D2
:100610000068C007F0D12268116820480140D4E981
:1006200001031843D4E9033633431843636918437D
:10063000A3691843E3691843236A18430843616AAE
:10064000042903D1D4E90B1319430843106020682F
:100650004069666A20F0070130460E4301270428EE
:100660000CD1A06A0643E06A40B12046FFF79CFE29
:1006700020B14020606584F83570BAE72068466193
:100680002046FFF77DFE94F85C203F219140816079
:10069000656584F835700020ACE700003F8010F0FD
:1006A0002DE9F0410446866D90F8340000250128BC
:1006B0000DD0012084F8340094F835700020012F0B
:1006C00007D084F8340002252846BDE8F0810220D6
:1006D000FBE7022784F8357060652046FFF78EFE41
:1006E00094F85C103F208840B0602068016841F0B9
:1006F00016010160206C20B12068016841F00801FA
:1007000001602068016841F001010160DCE7000040
:1007100070B5044600F004F90546601C02D0044898
:100720000078044400F0FCF8401BA042FAD370BDEE
:10073000000000202DE9F84FDFF8B8A100220124C5
:1007400003254FF00F090AF1040BAAF1040E00BFB4
:100750000B6804FA02F63340B34273D10F7907F005
:100760000307012F01D0022F16D187684FEA4208F4
:1007700005FA08FC27EA0C07D1F80CC00CFA08FCB3
:100780004CEA070CC0F808C04768B7430E79C6F3B7
:10079000001696403E4346600E79F643B6070DD0EC
:1007A000C768560005FA06FC27EA0C07D1F808C00E
:1007B0000CFA06FC4CEA070CC0F80CC00E7906F0E7
:1007C0000306022E10D1D60800EB8608D8F8206068
:1007D00057074FEAD76C09FA0CF7BE430F6907FABF
:1007E0000CF73743C8F8207006684FEA420C05FA48
:1007F0000CF7BE430F7907F0030707FA0CF73743EE
:1008000007604E6816F4403F6DD03B4E376847F4A2
:1008100080473760366822F0030706F4804600966A
:10082000364E07EB060CDCF8086897073F0F09FA0D
:1008300007F826EA0806DFF8C880404503D14FF0E4
:1008400000081EE04FE0DFF8BC80404502D14FF0C9
:10085000010816E0DFF8B080404502D14FF00208F1
:100860000FE0DFF8A880404502D14FF0030808E010
:10087000DFF89C80404502D14FF0040801E04FF0C2
:10088000070808FA07F848EA0608CCF80888DAF8F2
:1008900000605746D1F804C09E435FEACC2C00D5D7
:1008A0001E433E60DBF800605F46D1F804C09E4303
:1008B0005FEA8C2C00D51E433E60DEF80060774670
:1008C000D1F804C09E435FEA8C3C00D51E433E60D5
:1008D000084F083F3E68D1F804C09E435FEACC3C15
:1008E00000D51E433E60521C102AFFF431AFBDE814
:1008F000F88F0000083C01404438024000300140BD
:10090000000002400004024000080240000C0240C7
:10091000001002400AB1816170470904FBE7000042
:10092000014880687047000000000020024881688C
:100930000278114481607047000000200B4810B518
:10094000016841F400710160016841F48061016057
:10095000016841F480710160032000F06FF80F20FE
:1009600000F006F800F024F8002010BD003C024022
:1009700070B50D4D04464FF47A712878B1FBF0F054
:100980000A490968B1FBF0F000F0BEFC48B9102C30
:1009900007D200222146501E00F030F800206C6083
:1009A00070BD012070BD0000000000200C00002080
:1009B0000A4808B5016841F480410160006800F40C
:1009C000804000900548001F016841F0805101609F
:1009D000006800F08050009008BD000044380240DC
:1009E000002809DB00F01F0201219140400980002E
:1009F00000F1E020C0F8001170470000F0B40E4B89
:100A00001B680C46C3F30223C3F10705042D00D96C
:100A10000425191D072901D2002300E0DB1E012651
:100A200006FA05F1491E214099409E40761E164067
:100A30003143F0BC01F038BA0CED00E0064900F09B
:100A4000070208684FF6FF03184040EA0220034AF5
:100A500010430860704700000CED00E00000FA054C
:100A60002DE9F0470E46050065D0DFF81481D8F86F
:100A70000000F7B200F00700B04207D288F800701B
:100A8000D8F8000000F00700B04254D128683D4C6F
:100A9000810712D5400703D5206840F4E05020605C
:100AA0002878000703D5206840F460402060206863
:100AB000A96820F0F000084320602878C0072DD0F6
:100AC000304968680839012812D0022813D0032859
:100AD00011D00968890700292DDA216821F0030166
:100AE00001432160FFF71CFF814641F2883A0EE086
:100AF00009688903EFE709688901ECE7FFF710FF50
:100B0000A0EB0901514502D90320BDE8F087206818
:100B1000696800F00C00B0EB810FEFD1D8F800103D
:100B2000404601F00701B14207D90770006800F0A4
:100B30000700B04201D00120E7E72878400705D53B
:100B40002068E96820F4E050084320602878000716
:100B500006D52068296920F4604040EAC100206081
:100B600000F018F82168084AC1F30311515CC8402D
:100B70000649086006480068FFF7FAFE0020C4E74F
:100B8000003C024008380240404402080C000020AB
:100B900004000020154810B5006810F00C0214483D
:100BA00013D01449042A0FD0082A0ED10F4C241F49
:100BB0002268236802F03F025B0207D52068C0F379
:100BC0008810A0FB010106E0084610BD2168C1F3B2
:100BD0008811A1FB00010023FFF7FCFA2168C1F393
:100BE0000141491C4900B0FBF1F010BD083802403A
:100BF0000024F40040787D012DE9F84F04006ED008
:100C00002078DFF84C93C007A9F104054AD009F118
:100C100004000168C1F38101012908D00068C0F314
:100C2000810002280AD1D9F80000400206D52868C0
:100C3000800337D560680028E1D033E06068B0F504
:100C4000803F10D0B0F5A02F286810D020F480305D
:100C50002860286820F4802028606068A8B1FFF729
:100C60005FFE06460DE0286840F48030F4E740F46B
:100C700080202860F7E700BFFFF752FE801B642842
:100C800073D828688003F7D50CE0FFF749FE0646C5
:100C900005E000BFFFF744FE801B6428F0D82868F9
:100CA0008003F7D42078DFF8AC8280074FF0000A89
:100CB0003ED5A748001D016811F00C0F08D0006850
:100CC000C0F3810002280BD1D9F80000400207D4FC
:100CD0002868800716D5E068012800D112E033E1CA
:100CE000E068B8B10120C8F80000FFF719FE064619
:100CF00005E000BFFFF714FE801B0228C0D828685B
:100D00008007F7D52868216920F0F80040EAC10083
:100D100028600DE0C8F800A0FFF702FE064604E0D8
:100D2000FFF7FEFD801B02281FD828688007F7D434
:100D30002078000722D5864F87486169703771B1E6
:100D400001210160FFF7ECFD064604E0FFF7E8FD36
:100D5000801B022809D838688007F7D50EE0C0F854
:100D600000A0FFF7DDFD064605E082E0FFF7D8FDB5
:100D7000801B02287DD838688007F7D42078400788
:100D800068D5DFF8CCB100270BF13C0BDBF8000095
:100D9000C0000BD4DBF8001041F08051CBF80010FC
:100DA000DBF80000012700F0805000906B4E3068A7
:100DB000C00510D4306840F480703060FFF7B0FD9B
:100DC000009005E0FFF7ACFD0099401A022850D8CA
:100DD0003068C005F6D55E4EA0686C3601280FD08D
:100DE0000528306810D020F001003060306820F015
:100DF00004003060A068B8B1FFF792FD00900FE0EA
:100E0000306840F00100F4E740F004003060F7E79C
:100E1000FFF786FD0099411A41F28830814266D879
:100E200030688007F4D50EE0FFF77AFD009007E008
:100E3000FFF776FD0099411A41F28830814256D879
:100E400030688007F4D42FB1DBF8001021F0805116
:100E5000CBF80010A069C8B33D49091D0968C1F36A
:100E6000810102294AD00228504607D0C8F8600004
:100E700000E03CE0FFF754FD04463BE04746C8F87D
:100E80006000FFF74DFD064605E000BFFFF748FD97
:100E9000801B02282BD828688001F7D4D4E90701E9
:100EA0000843A16A2E4A490802EB0141626A41EAFD
:100EB0008211084394F82C1040EA0161C9F800102F
:100EC00001203866FFF72CFD044606E03EE000BF37
:100ED000FFF726FD001B022809D828688001F7D5F6
:100EE00034E000BFFFF71CFD001B022802D90320DD
:100EF000BDE8F88F28688001F4D427E00128F7D0F6
:100F0000D9F80000E26900F4800191421CD1226A04
:100F100000F03F01914217D147F6C071626A01406B
:100F2000B1EB821F10D1A26A4FF0FF3300F44031C1
:100F300003EB5202B1EB024F06D194F82C1000F0F3
:100F40007060B0EB016F01D00120D1E70020CFE746
:100F50000438024000004742800E474200700040C3
:100F60000000FFFF704770B5040009D0606A0025DB
:100F700040B125616561A56294F8510040B10CE073
:100F8000012070BD6068B0F5827FF4D0E561F2E7C2
:100F900084F85050204600F045F8022084F85100B3
:100FA0002068016821F040010160A088218900F4D7
:100FB000827001F404410843A18901F400610843EF
:100FC000217C01F002010843217D01F00101084369
:100FD000218B01F400710843217F01F0380108439F
:100FE00094F8201001F080010843218D01F4005194
:100FF000084321680860A069042101EA104094F8C0
:10100000241001F010010843216848602068C1697C
:1010100021F40061C1616565012084F85100002060
:1010200070BD000070B586B0064614216846FFF713
:101030001BF92049306888423AD11F4800250168D1
:1010400041F480510160006800F4805005901A4816
:101050001438016841F0020101600068694600F03F
:1010600002000590282000900220CDE90105032010
:101070000390052004901148FFF75CFB114C1048C9
:1010800020604FF0806060604020C4E902050001EC
:101090002061400060618000C4E9060525622046A9
:1010A0006562FFF793FA08B1FFF7BDF9B464A66370
:1010B00006B070BD003001404438024000040240D8
:1010C000406402406C0200202DE9F84F044690F87D
:1010D00050000026984615468A4601280CD0012764
:1010E00084F85070FFF71CFC814694F85100B34619
:1010F000012804D002269AE00220BDE8F88FBAF158
:10110000000F6FD0002D6DD0032084F85100C4F87B
:1011100054B0C4F830A0A586E586C4F838B0A4F869
:101120003CB0A4F83EB0C4F844B0C4F840B0A068E5
:10113000B0F5004F09D12068016821F0400101603D
:101140002068016841F48041016020680168490617
:1011500003D4016841F040010160E068B0F5006F20
:10116000606803D058B3012D29D049E008B1012DA2
:101170001FD1206B21680088C86006E02068816864
:10118000890709D5216B0988C160206B801C206309
:10119000E08E401EE0860CE0FFF7C2FBA0EB0901E9
:1011A000414503D3B8F1FF3F03D006E0B8F1000F8B
:1011B00003D0E08E0028E1D125E0032635E0206B46
:1011C00021680078087306E02068816889070AD5DD
:1011D000216B09780173206B401C2063E08E401E58
:1011E000E0860DE01FE0FFF79BFBA0EB0901414506
:1011F00003D3B8F1FF3F03D0DFE7B8F1000FDCD035
:10120000E08E0028E0D14A464146204600F0D2FC5C
:1012100008B120206065A06818B92068C16880689E
:101220000090606D08B1012601E084F8517084F8E7
:1012300050B0304661E7000070B5044690F85000A9
:101240000026012809D0012084F8500094F85100AC
:101250000025012803D002264AE0022070BD89B192
:1012600082B1032084F8510065652163A286E2867D
:10127000A56365642564A587E587A068B0F5004F80
:1012800002D00BE0012633E02068016821F0400124
:1012900001602068016841F480410160A16C16483A
:1012A0000864A16C1548C863A16C1548C864A06C9B
:1012B0000565E38E2268216B0C32A06CFFF7F0F914
:1012C00020B1606D40F010006065DBE720680168C8
:1012D000490603D4016841F040010160206841687B
:1012E00041F0200141602068416841F00201416005
:1012F00084F85050304670BD471B0008511B000851
:10130000251B00087047704710B5401EB0F1807F64
:1013100001D3012010BD4FF0E02460610F21601760
:1013200000F0C2FD0020A06107202061002010BD58
:101330007047704770B590F83C20012A2CD00124EA
:1013400080F83C40022280F83D2003685A689D687E
:1013500022F070060A6832435A60104B02689A42C3
:101360000ED0B2F1804F0BD00D4B9A4208D00D4BEE
:101370009A4205D00C4B9A4202D00C4B9A4204D1AF
:10138000496825F080031943916080F83D400021B1
:1013900080F83C10084670BD022070BD000001407E
:1013A0000004004000080040000C004000400140E4
:1013B00010B5040003D094F83D0010B107E00120FF
:1013C00010BD002084F83C00204600F01FF80220E9
:1013D00084F83D00211D206800F0DEFC012084F827
:1013E000460084F83E0084F83F0084F8400084F80A
:1013F000410084F8420084F8430084F8440084F8F3
:10140000450084F83D00002010BD000008B50068CC
:10141000B0F1804F12D10A48016841F0010101602A
:101420000068002200F00100009011461C20FFF728
:10143000E5FABDE808401C20FFF7D2BA08BD00005D
:101440004038024090F83D10012901D0012070473A
:10145000022180F83D100168CA6842F00102CA60AA
:1014600000680E4988420ED0B0F1804F0BD00C4975
:10147000884208D00B49884205D00B49884202D0E7
:101480000A49884204D1816801F00701062903D086
:10149000016841F001010160002070470000014037
:1014A0000004004000080040000C004000400140E3
:1014B00070B5044690F83C000025012817D001269D
:1014C00084F83C60022084F83D002068826822F0A5
:1014D000770222F47F4282600868502838D00DDC01
:1014E00020284FD005DC90B3102811D14AE002200B
:1014F00070BD302846D040280AD13BE060282FD06C
:1015000070280DD0B0F5805F03D0B0F5005F12D029
:10151000012584F83D60002084F83C00284670BD19
:10152000CB68D1E90121206800F088FC206881683F
:1015300041F0770109E0CB68D1E90121206800F092
:101540007DFC2068816841F480418160E1E719E019
:10155000CA684968206800F083FC5021206806E0D2
:10156000CA684968206800F08CFC6021206800F09F
:101570006FFCCEE7CA684968206800F071FC402122
:101580002068F4E7226801461046F0E770472DE92D
:10159000F04104460068C66805694FF00007A907D6
:1015A00013D5B10711D5F91E0161012020772068FC
:1015B00080698007204602D0FFF7E8FF04E000F0D2
:1015C0007EF8204600F07CF82777680716D570076C
:1015D00014D521686FF0040008610220207720688C
:1015E000806910F4407F204602D0FFF7CFFF04E06F
:1015F00000F065F8204600F063F82777280715D536
:10160000300713D521686FF00800086104202077A7
:101610002068C0698007204602D0FFF7B7FF04E0CA
:1016200000F04DF8204600F04BF82777E80616D575
:10163000F00614D521686FF01000086108202077AB
:101640002068C06910F4407F204602D0FFF79EFF5B
:1016500004E000F034F8204600F032F82777E8077D
:1016600008D0F00706D021686FF00100086120461D
:1016700000F027F8280608D5300606D521686FF057
:10168000800008612046FFF753FE680608D5700603
:1016900006D521686FF040000861204600F012F87E
:1016A000A8060AD5B00608D521686FF020000861A9
:1016B0002046BDE8F041FFF73CBEBDE8F081704731
:1016C000704770477047FEE72DE9F04107461C461A
:1016D00015460E462A2000F02BF92837B8B200F044
:1016E00043F92835A8B200F03FF92B2000F020F98B
:1016F0003536B0B200F038F93534A0B200F034F924
:10170000BDE8F0412C2000F013B9000070B5141AA8
:101710005D1A641C6D1C6C43049EFFF7D5FF01220B
:1017200010210F48FFF7F6F80E4D4FF40060E86007
:101730002868016841F400610160A2B23146284680
:10174000FFF77AFD0848006841680029FCD10020B5
:10175000E8602868016821F40061016070BD000044
:1017600000040240140200206C02002010B56E4CF0
:10177000012280212046FFF7CDF87820FEF7C8FF30
:10178000002240212046FFF7C5F87820FEF7C0FF71
:10179000012240212046FFF7BDF87820FEF7B8FF70
:1017A000112000F0C5F87820FEF7B2FF362000F0D7
:1017B000BFF8702000F0CAF83A2000F0B9F8052010
:1017C00000F0C4F8B22000F0B3F80C2000F0BEF82E
:1017D0000C2000F0BBF8002000F0B8F8332000F037
:1017E000B5F8332000F0B2F8B72000F0A1F83520AA
:1017F00000F0ACF8BB2000F09BF8192000F0A6F830
:10180000C02000F095F82C2000F0A0F8C22000F0D5
:101810008FF8012000F09AF8C32000F089F8122018
:1018200000F094F8C42000F083F8202000F08EF837
:10183000C62000F07DF80F2000F088F8D02000F0DE
:1018400077F8A42000F082F8A12000F07FF8E020D3
:1018500000F06EF8D02000F079F8042000F076F85F
:101860000D2000F073F8112000F070F8132000F044
:101870006DF82B2000F06AF83F2000F067F8542044
:1018800000F064F84C2000F061F8182000F05EF8D9
:101890000D2000F05BF80B2000F058F81F2000F03E
:1018A00055F8232000F052F8E12000F041F8D02054
:1018B00000F04CF8042000F049F80C2000F046F845
:1018C000112000F043F8132000F040F82C2000F025
:1018D0003DF83F2000F03AF8442000F037F851205E
:1018E00000F034F82F2000F031F81F2000F02EF81F
:1018F0001F2000F02BF8202000F028F8232000F013
:1019000025F8212000F014F8292000F011F800211A
:101910008623EF220846FFF7D7FE20460022BDE8C7
:1019200010408021FEF7F6BF0004024000F0F0B83E
:1019300001B5002210210448FEF7ECFF01216846A2
:10194000FFF7F4FF08BD00000004024001B50122CA
:1019500010210448FEF7DEFF01216846FFF7E6FF8D
:1019600008BD00000004024008B500210091010AF2
:101970008DF800108DF80100012210210348FEF7B8
:10198000C9FF02216846FFF7D1FF08BD00040240ED
:10199000094808B5016841F480010160006800222F
:1019A00000F48000009011463A20FFF727F8BDE8C8
:1019B00008403A20FFF714B8303802402DE9F041D2
:1019C00086B014216846FEF74FFC214800250168C7
:1019D00041F080010160016801F08001059101681A
:1019E00041F001010160016801F001010591016808
:1019F00041F0020101600068164F00F002000590FE
:101A0000002248F202013846FEF784FFDFF84880E2
:101A10000022D0214046FEF77DFF022001248DE800
:101A20003100694638460394FEF784FEE00303263E
:101A30008DE8710069463846FEF77CFED0208DE8BF
:101A4000710069464046FEF775FE06B0BDE8F081BC
:101A5000303802400000024000040240104810B537
:101A60000E4901604FF482714160002102228160C1
:101A7000C0E90312012242615202C0E9062101625B
:101A8000416281620A21C162FFF76DFA002803D02A
:101A9000BDE81040FEF7C7BC10BD0000003001409B
:101AA0001402002010B586B000241648009401945A
:101AB0000294039404944FF08041059401606321E3
:101AC000C0E9011440F2E731C0E903148461FFF773
:101AD0006FFC08B1FEF7A7FC4FF4805000906946F8
:101AE0000848FFF7E5FC08B1FEF79DFC049404A943
:101AF00004480594FFF71EFC002801D0FEF793FC74
:101B000006B010BDCC020020FEE7FEE770470000E3
:101B10000A4601464FF47A730148FFF7D5BA000030
:101B20001402002010B5806B01684A6822F003029D
:101B30004A60416D41F010014165012180F851106A
:101B4000FFF710FA10BD10B5806BFFF7DCFB10BD7E
:101B500038B50546846BFEF7E3FE02462868006848
:101B6000C00523D42068416821F02001416020682D
:101B7000416821F0020141606421204600F01AF81A
:101B800018B1606D40F020006065A068002118B9B0
:101B90002068C26880680090E186012084F85100C6
:101BA000606D18B12046FFF7DDF938BD2046FFF71C
:101BB000A9FB38BDF8B515460E460B460092044603
:101BC0000122022100F02CF8A0B913481349006843
:101BD000B0FBF1F04FF47A71484300906068B0F5C3
:101BE000827F0DD13346002280212046009500F0EF
:101BF00017F870B1606D40F0200060650320F8BDFB
:101C0000009830B1401E009020688068C0430006F4
:101C1000F6D50020F8BD00000C00002000366E0153
:101C20002DE9F8431E46914688460446089DFEF776
:101C300077FE401B351AFEF773FE074625480068FD
:101C4000C0F3CB30684338E0701C37D0FEF768FE35
:101C5000C01BA84203D215B1009860B32CE02068E5
:101C6000416821F0E00141606068B0F5827F0BD1EE
:101C7000A068B0F5004F02D0B0F5806F04D12068A5
:101C8000016821F040010160A06AB0F5005F09D150
:101C90002068016821F4005101602068016841F466
:101CA00000510160012084F85100002084F85000A8
:101CB0000320BDE8F8830025401E0090206881685D
:101CC00038EA010004D000214945BDD10020F0E7E9
:101CD0000121F9E70C0000207047FEF727BE000045
:101CE00030B593B030216846FEF7BEFA14210CA837
:101CF000FEF7BAFA1C480025016841F080510160E6
:101D0000006800F0805011901848016841F440418B
:101D100001600068022400F440401190012000900E
:101D2000000401908001CDE906400C20089060205D
:101D3000CDE9090404200B906846FEF75DFF08B169
:101D400072B6FEE70CA90F2081E831004FF48050F5
:101D5000CDE90F0503210CA8FEF782FE002801D073
:101D600072B6FEE713B030BD40380240007000404C
:101D70000248016841F470010160704788ED00E09D
:101D800010B501201CF09EFFBDE810400148FFF790
:101D9000FEBB0000CC020020F0B50268204B214CB5
:101DA0009F03214D214E984207D0B84205D0A04252
:101DB00003D0A84201D0B04204D122F0700C4A688E
:101DC00042EA0C02984210D0B8420ED0A0420CD089
:101DD000A8420AD0B04208D0154CA04205D0154CFC
:101DE000A04202D0144CA04203D122F44074CA682D
:101DF00022434C6922F08002224302608A68C26258
:101E00000A688262984201D1096901630121416136
:101E10000169C90703D0016921F001010161F0BD29
:101E2000000001400004004000080040000C004099
:101E300000400140004401400048014010B5846862
:101E400042EA032224F47F440A432243826010BD05
:101E5000826822F070020A4342F0070181607047F5
:101E600010B5036A046A24F001040462846924F052
:101E7000F00444EA021423F00A020A438461026275
:101E800010BD10B5036A046A24F01004046284696A
:101E900023F0A00324F4704444EA023243EA01111F
:101EA0008261016210BDFEE70907090E002804DB0C
:101EB00000F1E02080F80014704700F00F0000F1FE
:101EC000E02080F8141D704702E008C8121F08C106
:101ED000002AFAD170477047002001E001C1121FAB
:101EE000002AFBD1704770B5044600256FF02F061D
:101EF00008E02068411C2160007805EB850106EBB5
:101F0000410145182068007800F004F80028F0D15D
:101F1000284670BD3038092801D8012070470020BC
:101F20007047000010B54421074800F09DFC0022D6
:101F30001E2106481CF020FF054CA06001F064FD46
:101F40000020207010BD000044030020BD3A0008AE
:101F5000640000202DE9F0470E46814617461146E1
:101F6000304600F01CF94FF0FF3A00287DD00022E7
:101F70003946304600F0BFF800284FF0000075D118
:101F8000B6F90480B6F900305246A8EB0301491CAB
:101F90000AFA81F10FFA81FAB6F906C0B6F9021011
:101FA000ACEB010C0CF1010C02FA8CF2B7F802C098
:101FB00012B2ACEB010C0FFA8CFCBCF1000F0EDD81
:101FC00063F30F0468F30F0501EB0C0061F31F448A
:101FD00060F31F45C9F800400120C9F80450B7F963
:101FE00006107388CB1AD21A12B2002A13DDB6F982
:101FF000063099420FDA338863F30F04B38861F334
:102000001F4463F30F05114461F31F4509EBC00141
:10201000401C0C604D60B7F90220B6F902108A42EC
:1020200000DD1146B7F90630B6F90620934200DA12
:102030001A463B88B6F900C0521AA3EB0C031BB238
:1020400012B2002B10DD002A0EDD634463F30F058E
:102050008B1863F31F456CF30F0409EBC00361F3A6
:102060001F441C605D60401C01E01AE017E0B7F9F6
:10207000043036889F1BAAEB070636B2002E0EDD11
:1020800063F30F0461F31F44334463F30F051144FA
:1020900061F31F4509EBC001401C0C604D60BDE8B9
:1020A000F0875046FBE770B5B1F90030B2F9004057
:1020B000A34200DC23460380B1F90250B2F902408A
:1020C000A54200DD2C464480B1F90460B2F9045009
:1020D000AE4200DA35468580B1F90610B2F9062025
:1020E000914200DB1146C1800120AB4201DC8C42F1
:1020F00000DD002070BDF8B50D460446B0F90000C3
:10210000B1F900101646884247DBB4F90210B5F960
:102110000220914241DBB4F90410B5F90420914248
:102120003BDCB4F90610B5F90620914235DC96B3D4
:10213000ADF800006088ADF80200324669462846D6
:1021400000F099F8002827D0A088ADF8000060883A
:10215000ADF8020032466946284600F08CF80028A7
:102160001AD02088ADF80000E088ADF802003246B1
:102170006946284600F07FF800280DD0A088ADF809
:102180000000E088ADF8020032466946284600F0BB
:1021900072F8002800D00120F8BD0020F8BDB0F989
:1021A0000020B1F904309A4213DCB0F90420B1F9EF
:1021B00000309A420DDBB0F90220B1F906309A42A4
:1021C00007DCB0F90600B1F90210884201DB0120FA
:1021D000704700207047F8B50D460446B0F904007A
:1021E000B1F900101646884243DBB4F90600B5F990
:1021F000021088423DDBB4F90000B5F904108842B2
:1022000037DCB4F90210B5F90620914231DC76B31F
:10221000ADF800006088ADF80200324669462846F5
:1022200000F029F818BBA088ADF800006088ADF870
:10223000020032466946284600F01DF8B8B92088E9
:10224000ADF80000E088ADF8020032466946284645
:1022500000F011F858B9A088ADF80000E088ADF89A
:10226000020032466946284600F005F808B1002011
:10227000F8BD0120F8BD2DE9FC4114460E46B1F928
:102280000020B0F9001005468A423ADBB5F9040097
:10229000824236DCB6F90270B5F90220974230DB93
:1022A000B5F906309F422CDC002C75DD401A9A1AD5
:1022B000401C521C00B212B200EBD07002EBD27282
:1022C00040105210904200DB1046844200DD04466C
:1022D000ADF80010288800222044ADF8040068887A
:1022E000ADF80200688831462044ADF80600684623
:1022F000FFF7C1FF40B1BDF804002044ADF8040071
:102300003FE00020BDE8FC81E8880022001BADF81A
:102310000200E888ADF8060031466846FFF7ABFFDB
:1023200028B1BDF804002044ADF8040011E0A888ED
:102330000022001BADF80000A888ADF8040031466B
:102340006846FFF798FF50B1BDF80000001BADF8DC
:102350000000BDF80200001BADF8020016E068881E
:10236000ADF80200688800222044ADF8060031462E
:102370006846FFF780FF70B1BDF80000001BADF8A4
:102380000000BDF806002044ADF80600314668465E
:102390001AF0C4F9B6E7FFE70120B3E710B5B1F9C9
:1023A0000040B2F900309C4200DA23460380B1F9C4
:1023B0000240B2F902309C4200DA23464380B1F970
:1023C0000440B2F904309C4200DD23468380B1F919
:1023D0000610B2F90620914200DC1146C18010BD02
:1023E000F8B507461CF064FC0025374C06460095FE
:1023F00037B1F868606038461CF08CFD606802E018
:102400000FF024FC606000691AF084F8606840698D
:1024100008B11AF07FF86068C0691AF07BF860684C
:10242000006A1AF077F86068016991B11AF00AFA47
:102430001EF060FC1EF086F96068B0F85011D9B348
:102440000068017CC9071DD0C0684068D0B1002772
:1024500013E0A0F85051F8BDC11991F8301151B9ED
:1024600000F5AC7000F057FA616801EBC7010A6B28
:102470000260496B41607F1CBFB26068B0F85011C8
:10248000B942E9D860684FF48071303015F05CFDD6
:102490006068202100F5987015F056FD6068A0F87E
:1024A000505130461CF0FEFB009060680068436AA3
:1024B00013B122680099984715F0C4FB00F032F878
:1024C000BDE8F84000F002B83C00002070B50A4DAD
:1024D000002400BFC4EBC40655F8260008B115F06F
:1024E00025FC05EB86001C2115F02EFD641CE4B2D2
:1024F000042CEFD370BD0000200400200849496877
:102500000AE04A68824202D00A68824203D10A7E07
:1025100042F001020A7649690029F2D170470000B1
:1025200010000020704700000421014800F09CB911
:10253000380300202021014800F096B95003002004
:102540002DE9FF410446DDE90A671D004FF0000058
:1025500002D1B6F5807F2BD0039001900290ADF8A8
:102560000C100090ADF80410ADF80A20ADF80E2064
:102570003B463246294668461AF030F83B4632461A
:10258000294601A81AF02AF83B463246294602A8F5
:102590001AF024F83B463246294603A81AF01EF8E2
:1025A000BDF90000BDF90430984209DA054608E09B
:1025B0002080491E6080A180521EE280BDE8FF811C
:1025C0001D46BDF90820BDF90C108A4201DA1646F5
:1025D00000E00E46B54203DA984206DB184604E0F6
:1025E0008A4201DA104600E00846801E2080BDF9CC
:1025F0000030BDF90420934201DD1D4600E0154680
:10260000BDF90800BDF90C10884201DD064600E066
:102610000E46B54205DD934201DD194604E0114640
:1026200002E0884200DD0146891CA180BDF902302C
:10263000BDF90620934201DA1D4600E01546BDF9BA
:102640000A00BDF90E10884201DA064600E00E4687
:10265000B54205DA934201DA194604E0114602E078
:10266000884200DA0146891E6180BDF90230BDF959
:102670000620934201DD1D4600E01546BDF90A0023
:10268000BDF90E10884201DD064600E00E46B54257
:1026900005DD934201DD194604E0114602E088425F
:1026A00000DD0146891CE18088E700002DE9F0414A
:1026B00015460E460746114C1CF0FAFA80462B468A
:1026C00032463946204613F04FFC20B10020A0626C
:1026D000E06950B110E02C21204615F035FC4FF098
:1026E0000040A0620020BDE8F08140461CF0DAFA0C
:1026F000E06108B90120E0612046F4E7740300209E
:1027000010B51421074800F0AFF813F0F3FB40B107
:102710000549016005494160054981600549C1607D
:1027200010BDFEE75C030020C9580108455C0108A4
:10273000155E0108955801087FB50E46040003D1C7
:102740000FF084FA04002CD00FF0F4FA002828D0FF
:1027500094F82800400724D4002506B3ADF80050B3
:10276000ADF8025020460FF089FA401EADF8040083
:1027700020460FF0C9FA401EADF806006A46314601
:1027800002A8FFF790FC00280BD02068017C890785
:1027900008D5DDE90001C4E90C01012029E0A4F815
:1027A00050517FBD82690AB102A9904700260AE014
:1027B00004EBC601002202A83031FFF79CFC002880
:1027C000EFD1761CB6B2B4F85001B042F0D880B266
:1027D000202804D204EBC00002A9303004E0A4F8A1
:1027E000505104F1300069460CF0F7FFB4F8500185
:1027F000401CA4F8500160680028D2D01CF096FB61
:102800007FBD70B5054600F012F804460CE0214685
:10281000284600F01EF806462146284600F0A2F899
:10282000204615F083FA3446002CF0D170BD002804
:1028300000D04068704700B503460022FFF7F7FF5D
:1028400003E01846521C00F004F80100F9D11046CC
:1028500000BD0068091D4058704700684058704727
:10286000002800D08068704700224260C91C21F017
:10287000030182600160704770B50446006808304B
:1028800015F0C8F9050013D00146002220461DF0BE
:102890005BFB2946204662681DF050FB616819B158
:1028A0002A4620461DF050FB6560A06800B9A5606F
:1028B000284670BD2DE9F0410C4606000AD04CB107
:1028C000FFF7B5FFA04208D13046FFF7D5FF051E40
:1028D00001D01EE00020BDE8F0813068083015F01E
:1028E00099F9051EF7D030682A460759304639460F
:1028F0001DF024FB3A46294630461DF025FB2A46AA
:10290000214630461DF020FB2246294630461DF068
:1029100015FB2846DFE770B504460068083015F05F
:1029200079F9050013D00146002220461DF006FB70
:1029300029462046A2681DF007FBA16819B12A4666
:1029400020461DF0FBFAA560606800B96560284666
:1029500070BD28B1416809B9806808B1002070478E
:102960000120704770B504000DD0FFF760FF002212
:102970008842204608D1FFF76CFF6060011E01D03D
:1029800000221EE0A26070BDFFF76AFF8842206847
:1029900008440AD10168A16029B12046BDE8704011
:1029A00000221DF0CBBA626070BD05682046FFF7BB
:1029B00050FF06460246294620461DF0BFFA2A4629
:1029C00031462046BDE870401DF0BEBA10B5044641
:1029D000006882680AB12146904720680068002894
:1029E00001D02060F5E710BD8068002801D0B0F963
:1029F000160070478068002801D0807E80097047EB
:102A000070B5164605460C4651EA06001AD028460F
:102A100016F000F8A86801233246018A2144018299
:102A2000A868418A314441822146284618F078FB43
:102A300000220B21284612F0EBF9012803D1284689
:102A400018F0C7FA012070BD77B581B00E460500B9
:102A500017D0622217F0EEFD040012D0206880B17A
:102A600028463146632217F0E5FD10F0FF0208D03A
:102A700023682046039998470090BDF80000ADF800
:102A80000C00039804B070BD2DE9F047074692B0E2
:102A9000408C1A9E40F00800788490463A8499460B
:102AA0008A463289384617F0C5FD0546A7F82090BA
:102AB00032895146384617F0BDFD0446788CA54250
:102AC00020F00800788403D12904B1EB044F68D0CA
:102AD000A7F8208032895146384617F0ABFD0546ED
:102AE0008046A7F82090514638460AF0D3FF318936
:102AF00000682A461BF028F830890B2823D147F6B6
:102B0000FF794D4501D04C451DD1384617F059FF8E
:102B100000EBD0704510384616F031FE00EBD07057
:102B20004010C84506D1691C431C994200DA00E0F8
:102B3000194688464C4506D1691C421C914201DA6F
:102B40006C1C00E014461948FFF796FE05002BD0D8
:102B50002F60C5E903843089A8806846C5F808A0BD
:102B60000CF0AEF81248FF21CDE900501148029058
:102B70001148039000200890CDE9090130880B909E
:102B800070889DF8421040420C90F0680790002039
:102B900060F300018DF842103069069068460CF031
:102BA00003F912B0BDE8F087FEE7000068030020DB
:102BB000793C0208613E0208BD3D0208142101482B
:102BC000FFF752BE680300202DE9F84F002590461C
:102BD000894606462C460427E6E000BFF06807EB6E
:102BE000C401405881017CD480B230EA090112D07E
:102BF0005FF0000230EA08000FD00020824270D05F
:102C0000F0686A46102150F8340082461AF0FEFC43
:102C1000002871D103E00122ECE70120EEE76A46CB
:102C2000112150461AF0F2FC002865D16A461221A3
:102C300050461AF0EBFC00285ED16A46132150463C
:102C40001AF0E4FC002857D16A46152150461AF0C4
:102C5000DDFC002850D16A46142150461AF0D6FCFB
:102C6000F0BB6A460A2150461AF0D0FCC0BB6A4647
:102C70006B2150461AF0CAFC90BB6A466C21504644
:102C80001AF0C4FC60BB6A46012150461AF0BEFC33
:102C900030BB6A46042150461AF0B8FC00BB6A46B5
:102CA000022150461AF0B2FCD0B96A4603215046C0
:102CB0001AF0ACFCA0B96A46052150461AF0A6FCF1
:102CC00070B96A46062150461AF0A0FC40B96A461F
:102CD000322150461AF09AFC10B96A466E2101E082
:102CE0000AE060E050461AF091FC28B96A466D216E
:102CF00050461AF08BFC10B10320BDE8F88F6A46ED
:102D0000692150461AF082FCF0BB6A466A2150469F
:102D10001AF07CFCC0BB6A466E2150461AF076FC65
:102D200090BB6A466D2150461AF070FC60BB6A4643
:102D3000372150461AF06AFC30BB6A4638215046AB
:102D40001AF064FC00BB6A46352150461AF05EFC5E
:102D5000D0B96A46402150461AF058FCA0B96A46DC
:102D6000452150461AF052FC70B96A46412150463E
:102D70001AF04CFC40B96A46422150461AF046FC13
:102D800010B96A46432100E009E050461AF03EFCC3
:102D900028B96A46492150461AF038FC08B1022584
:102DA00001E005B90125641C708CC0F30510A04238
:102DB0003FF614AF2846A0E701484068704700007E
:102DC0003C0000207047C0F30410072800D90720FA
:102DD00070470000A0F57F41FF3905D0002804D0DE
:102DE000712803D208490AE01F207047074971384B
:102DF00080B2096829B1064A5268904201D2085C43
:102E00007047002070470000F07B0208900000200F
:102E1000A400002010B518210348FFF725FD034941
:102E20000120087010BD000014030020AC00002039
:102E30002DE9F04190460C46050015D0FDF71FFA2C
:102E40000A4F06462146BA68284690470446BA68A3
:102E50002819414690470146701A03E06218AA5C9F
:102E60002A55641CA042F9D2BDE8F081C0000020C0
:102E70002DE9F041094D90460E466A681C4607460A
:102E800019469047306020B120686A6838440021B4
:102E90009047C8F80000BDE8F0810000C0000020A5
:102EA0002DE9F04F87B08A46DDE910581F4693465A
:102EB0000446002105B129805CB12078002809D0A2
:102EC000BAF1000F05D0002618F0060F15D000202B
:102ED00004E0002007B0BDE8F08F401C215C0A2907
:102EE00004D00D2902D00029F7D100E0401C002DAC
:102EF000F0D04FF0FF312980ECE75FEA887001D510
:102F000041F6FF77894608468DF81410049127E0B2
:102F10000498CDF8189068B34FF0000C05AA06ABE2
:102F2000CDF80CC0CDF80080CDE9013220443B46FD
:102F30005A4651461CF03CF906997A1A314417B2A8
:102F40000EB288B104990144049120780A280BD06C
:102F50000D2809D0605C0A280FD00D280DD0084636
:102F6000205C08B1002FD3DC049848B105B12E8055
:102F70000498AFE74FF0010CD0E7481C0490F3E74A
:102F8000064A04A9204652689047002DF0D0014619
:102F90000022504612F050F806B2E8E7C0000020C8
:102FA0002DE9F0411746884606001ED0002F1CD0A0
:102FB000FDF765F904463846FDF761F9050014D0C0
:102FC0000B4A2C444146926830469047411903E031
:102FD000621BB25C3255641EA142F9D930442A46C4
:102FE0003946BDE8F04114F071BFBDE8F081000042
:102FF000C000002000230278232902D0012A0DD02E
:103000000FE02AB10021012A04D0022A04D008E0EE
:10301000012101E0017004E0017001E0202902D0EB
:103020000123184670470221F6E72DE9F0410E46CC
:10303000804602460021334608461CF0F7FA044653
:103040000027401C14F0E6FD050008D02F5533463C
:103050004246611C1CF0EAFA2846BDE8F081FEE712
:103060002DE9F0471E4614460D468246DDF82090B5
:1030700015E000BF4FEA540808FB06573946504692
:103080004A469047002808DD44F30000C0EB540492
:1030900007EB0605A4F1010401E005DA4446002C23
:1030A000E8D12046BDE8F0873846FBE72DE9FC5F14
:1030B0009B460CAB8A468146DDE9116093E812100D
:1030C000DDE90F575FEA80784FF030031AD45EB124
:1030D0005FEAC07808D000F00C0858EA0C0803D06A
:1030E000761E01E00B55641CBC4204D2202CF9D39F
:1030F00001E00B55641C5FEAC07803D0B44201D2F2
:10310000202CF6D35FEAC06825D55FEA40580AD480
:103110004CB1BC4201D0B44205D1641E03D0102D85
:1031200003D1641E04E0102D02D0022D0AD00EE05F
:10313000850603D4202C1ED2782506E0202C1AD236
:10314000582502E0202C16D262250D55641C202C37
:1031500011D20B55641C202C0DD2BCF1000F01D0F4
:103160002D2306E0430701D52B2302E0030702D5F8
:1031700020230B55641CCDE900BAC846154681468C
:103180008B46AA46800714D1274607E02A46DDE988
:1031900000316D1C2020C446E0477F1CB742F5D3A8
:1031A00007E02A466D1C641EDDE900311BF80400AF
:1031B000C047002CF5D15FEA897006D409E02A46A1
:1031C000DDE900316D1C2020C047A5EB0A00B042AC
:1031D000F5D32846BDE8FC9F2DE9F04F8FB0994606
:1031E0008B46DDE91818DDE91C63DDE91A479246D4
:1031F0008646002209B923F01003580507AD00D513
:10320000C9B1B1FBF4F004FB1010C0B20A2801D21E
:10321000303009E05FEA836C02D54FF0410C01E0E9
:103220004FF0610C60440A38B1FBF4F1A854521C11
:1032300009B1202AE5D3CDF80880CDE90563CDE9B1
:103240000052CDE903474B46524659467046FFF7B8
:103250002DFF0FB0BDE8F08F2DE9FF4F8FB01CACF4
:10326000DDE9239594E8030820AC94E8C004002429
:1032700050EA010201D125F010056A050DF11C0884
:1032800002D550EA010217D032463B46FCF7A2FFB6
:10329000D2B20A2A01D2303206E0AB0601D5412370
:1032A00000E061231A440A3A08F80420641C50EA3A
:1032B000010201D0202CE7D3CDE90084CDF808B07D
:1032C000CDE90595CDE9036A0FAF97E80F00FFF749
:1032D000EDFE13B0BDE8F08F9A4200D288547047DB
:1032E000704700002DE9FF4F89B005460A98002479
:1032F0009246002800D1FE4D8FE1252804D02246B9
:10330000641C53460A990BE2491C4FF0000808461A
:103310000C9101782B2919D004DC202919D02329FC
:1033200004D119E02D290ED0302909D00026C8B2C9
:10333000FEF7F0FDB0B10CA8FEF7D5FD06461FE084
:1033400048F001010AE048F0020107E048F00401FA
:1033500004E048F0080101E048F01001401C8846F4
:103360000C90D6E70C9908782A2809D1169840C8FD
:103370001690002E02DA48F002087642491C0C91A1
:103380000C984FF0000B01782E2919D1401C0C909D
:1033900048F480680078FEF7BDFD20B10CA8FEF768
:1033A000A2FD83460CE00C9A10782A2808D11698C2
:1033B00002C81690002900DC0021521C8B460C929A
:1033C0000C9801786C290AD004DC68290FD06A298E
:1033D00019D128E0742929D07A2914D126E0401C7B
:1033E0000C90017848F480786C291CD00BE0401CCC
:1033F0000C90017848F08008682904D148F0400119
:10340000401C88460C9002460078692822D015DCC2
:1034100062281FD00DDC252871D050281AD05828DA
:103420007FF46DAF16E048F40071E9E748F480716D
:10343000E6E7632878D06428F2D10BE0732874D0D3
:1034400004DC6F2806D07028EAD103E0752801D08B
:103450007828E5D178280DD058280BD070280BD0CB
:10346000502809D06F2816D0622816D00A2128F0DB
:10347000100016E0102107E05078102148F48878F9
:10348000562804D1521C0C921078582807D0107876
:10349000502804D006E0082109E0022107E048F0A6
:1034A000200080461078692803D0642801D028F0D5
:1034B0000C085FEA485001D528F001081078692807
:1034C0001ED064281CD0562864D05FEA885072D57C
:1034D000169804ABC01D002283E806080292CDE9CD
:1034E000076820F007005346F0E80212CDE9001209
:1034F0001690224628460A99FFF7AEFE89E00AE1B7
:103500005FEA885024D5169804AFC01D20F0070349
:10351000F3E802021693002387E80A08CDE907685A
:10352000002A03DA012102E080E0A6E00021002366
:10353000029119461B1A914101DA114603E000215C
:10354000404261EB020153462246CDE90001D1E73A
:103550005FEAC85004D5169804C80FE0524215E03F
:103560005FEA486003D5169810F8042B06E05FEA7E
:103570000860F0D5169830F8042B12B21690CDE9F9
:10358000021BCDE90468D00F002AE7DDCDE9002059
:1035900053461EE01698AAEB040202C8169048682B
:1035A000006800900A980B6801192846FFF79AFEF8
:1035B00004442FE0FFE75FEAC8500CD5CDE9021BB9
:1035C000CDE9046816980021534604C8CDE90021CE
:1035D0001690224619E05FEA486003D5169810F865
:1035E000042B08E05FEA0860169803D530F8042B36
:1035F00092B200E004C816900020CDE90020CDE989
:10360000021BCDE904685346224628460A99FFF773
:10361000E3FD04460C98401C0C900C990878002897
:103620007FF46BAE54457DD222467DE001275FEAF0
:10363000887006D509E02246641C534620200A996A
:10364000A84738467F1CB042F5D316992246641C21
:1036500011F8040B169153460A99A8475FEA88703F
:1036600006D4D7E72246641C534620200A99A8476F
:1036700038467F1CB042F5D3CCE7169850F8049B2F
:1036800016904B46BBF1000001D0014601E04FF01F
:10369000FF31484600E0401C02780AB1491EFAD2C8
:1036A000C71A5FEA485003D558465F4500D307461E
:1036B0005FEA887006D512E02246641C534620203B
:1036C0000A99A84738467F1CB042F5D307E000BFEF
:1036D000224609F10109641C53460A99A84799F842
:1036E000000040B15FEA4851F2D5BBF1010B01E0A7
:1036F000E1320008ECD25FEA887006D48AE72246FD
:10370000641C534620200A99A84738467F1CB042C3
:10371000F5D37FE706E02246641C534625200A992C
:10372000A84777E7AAF10102534600200A99A84763
:103730000DB02046BDE8F08F10B502004FF000003C
:103740000CD04B1E194200D0FEE70A44521E9A4389
:10375000B2F5803F02D20C2A01D9104610BD0C20D0
:1037600010BD08444A1E401E9043114200D0FEE79F
:10377000704700002DE9F0410F4601210025044665
:1037800041862E460BE01B49FCF780FD10B16D1CF5
:10379000ADB202E0608E401C6086761CB6B257F86F
:1037A000260010B101780029EDD1208EA8421ED04C
:1037B000A06A002610B114F0B9FAA662E06A10B14E
:1037C00014F0B4FAE662E80014F024FAA06238B10A
:1037D000680014F01FFAE06218B1A16A11B102E0AA
:1037E000FEE7FEE70025690014F0AEFB2586BDE884
:1037F000F0810000E80101082DE9F84F8146407A88
:103800000F4600F00700022819D010468046974264
:1038100000DD3A46164603202A4C2B4A00EB4600B0
:1038200020F00305A06811681035411A636805EBA4
:10383000010C9C4505D2416821F0004124E0084676
:10384000E4E79D4219D892464FF0FF3B4819616862
:10385000884210D9002269461C48CDF800B00AF011
:103860005BFE002269461A480AF056FEA168DAF8A3
:103870000000091AEAE7A068DDE7284614F0CAF953
:10388000C0B1416841F0004188EA6702416089EABD
:1038900002010160416801F04041491C31F0804162
:1038A00041608681A0F80E8005D500F1100181608D
:1038B000BDE8F88FFEE7A16801F11002294482609B
:1038C000A160F5E7000200208C000020EDC6000892
:1038D00079E5000870B586B000224A4C8DF80820C2
:1038E0008DF80C208DF81020E2888A4201D0FF224A
:1038F000A270E18090F83C20142302F003024FF400
:10390000B475012A24D0022A5ED0A578AA4211D02B
:1039100010F8265F05EB051505EB4505B5FBF3F53E
:103920002570407800EB001000EB4000B0FBF3F096
:103930006070A27004AA03A8CDE9000201EB410067
:103940004FF6FF7101EA400002AB627821781BE07C
:10395000A678B24210D0868C06EB46067602B6FBFD
:10396000F5F5A58090F8270000EB001000EB400073
:10397000B0FBF3F06070A27004AA03A8CDE90002C6
:10398000C9B202AB62783AE008F0C3FB9DF81010B0
:103990009DF80C00CB08BDF800109DF8082063F3DB
:1039A0000401ADF800108108BDF8000061F34A1071
:1039B000D10880B261F3CF20ADF8000080B2009052
:1039C000BDF8000006B070BDA678B24210D0868C5B
:1039D00006EB46067602B6FBF5F5A58090F82600C4
:1039E00000EB001000EB4000B0FBF3F02070A27081
:1039F00004AA03A8CDE90002CAB2217802ABA088CC
:103A0000C2E700009401002010B5084C012020708E
:103A10000748FEF70CFF0028A06803D0BDE810405F
:103A20001BF084BABDE810401BF074BA640000209B
:103A30004403002010B5044690F84200A16B8207B1
:103A400009D4B4F840204AB1A2F57F43FF3B1BD014
:103A5000521EA4F84020B4F84020AAB909B1820748
:103A600012D521461448FEF77DFFFFF7CDFFE16830
:103A700009B120468847216909B120468847204678
:103A8000BDE8104014F052B9E26B524222630029A3
:103A900011D0820702D4626B524222634210521C40
:103AA00062F3410084F84200A26A206A2262A062A6
:103AB000E06AE162A06310BD4403002070B5304DA0
:103AC00068681BF0EFF80646687880F001006870BF
:103AD00047E00020287094F842006978C0F3800223
:103AE0008A4242D061F3820084F84200216B8A1935
:103AF000030719D4002917DC002A15DBC00709D1F8
:103B0000616939B120468847216A01442162A16A6E
:103B10000844A062A16809B12046884794F8420091
:103B200040F0080084F84200206B8019206316D40E
:103B3000E16A884200DD2163E16920468847014649
:103B4000606A884204D0616262680AB12068904766
:103B5000D4E90B01814202DB2046FFF76BFF287896
:103B600018B10848FEF763FE03E021460548FEF75A
:103B700070FE0400ADD11BF09BF8686070BD0000C2
:103B8000640000204403002070B5044640680D46E0
:103B900008B1FFF7F9FF2268002A04D02946204621
:103BA000BDE87040104770BD89B20BF07BBD89B293
:103BB0000BF0B4BD2DE9FF4F99B09846DDE926B171
:103BC0002D9816468A464FF00009042811D0052882
:103BD00011D0062812D0142870D101270225002404
:103BE00018FB06F00E901A98401E0D90701E06905D
:103BF00051E10027F2E701270325F0E7012702251D
:103C0000FFF7DAF80068D0F83890E8E728986043C2
:103C10000BEB2022299860430AEB202110124FEA77
:103C2000212E7DD41A9B98427ADABEF1000F77DB01
:103C3000B64575DAD2B2CBB2802A05DAC2F17F027C
:103C40004FF0FF31520003E001215200A2F58072D3
:103C50000992802B05DAC3F17F034FF0FF325B003E
:103C600003E001225B00A3F580730A930EFB080CAE
:103C7000199B0CFB053307934318119372D4DDF89D
:103C800034C063456EDC1EEB02036BD4DDF818C054
:103C9000634567DCDDF81CC011FB05C1CDE915C12A
:103CA00012FB08F101FB05C10C91D7B32D99052931
:103CB00005D014290BD0062955D066E0EFE0159801
:103CC000807807900C9881781698807810E0199A7F
:103CD0000E990EFB08FC02EB41010A180EFB0811BD
:103CE0001CF802000790119803FB08F3085C995C2C
:103CF000079A91420AD00A9A11FB02F20A99C1F579
:103D00008073079911FB0321C1F30721079A9042A1
:103D10000DD0099A10FB02F20998C0F5807301E0FA
:103D20002FE035E0079810FB0320C0F3072008447C
:103D30002C994008085527D015980178407801EB58
:103D40000020ADF80C000C980178407801EB0020C1
:103D5000ADF8100016980178407801EB0020ADF81E
:103D6000080023E04CE0159801881FFA89F0814291
:103D700007D00C990988814203D01699098881429D
:103D800003D12C990020085583E0FF210846CEE797
:103D900015980088ADF80C0016980088ADF808005A
:103DA0000888ADF810002C98FF210155BDF80C00D3
:103DB000BDF81010884209D1BDF80810884205D11D
:103DC0002B98BDF80C1000EB440017E00A98C2B223
:103DD000DDE903100DF06EFB04900998C2B2DDE935
:103DE00002010DF067FB7F22029004990DF062FB47
:103DF00000902B98BDF8001000EB4400018048E0D3
:103E0000079B93F800C05B780CEB0323DDF8ACC094
:103E10009BB22CF81430DDF8B4C0BCF1050F06D00D
:103E2000BCF1060F06D0BCF1140F09D10AE0079BC4
:103E30009B780FE01FFA89FC634501D1002309E05C
:103E4000FF2307E0199B0EFB083C0E9B00EB43038E
:103E50001CF8033008B9002905DBDDF834C06045E3
:103E600003D1002901DD09980AE0BEF1000F01D15C
:103E7000002A04DB06998E4508D1002A06DD0A983F
:103E8000C0F1FF0010FB03F0010A00E000212C98B4
:103E90000155641C24B22A988442FFF6B7AE1DB0C7
:103EA000BDE8F08F10B5818F92B00446A9B1684685
:103EB0000AF006FF0B480121CDE90040A08F0B90CE
:103EC00000200890CDE909010748079007480390B2
:103ED00068460AF069FF12B010BD12B0BDE810408C
:103EE0001CF07EB9590202087FED00085B0202084F
:103EF00010B50446406882080AD0496821F00301E1
:103F0000091D08446060204600F042F8204610BDBC
:103F1000FEE74068103120F00300884201D3012001
:103F20007047002070472DE9FC47054648680C465D
:103F300020F0030001AA69461BF0A8FEDDE900702D
:103F400005EBC71101EB80098046D9F83C0060B150
:103F500064B1C4E9020504F10806C46030460421D6
:103F6000FFF7FFFB864202D0FEE7FEE7FEE7C9F857
:103F70003C400120296900FA07F21143296105EB51
:103F8000870100FA08F04A6902434A61BDE8FC87EC
:103F900010B5044600F087F8046010BD2DE9FC4719
:103FA00006464FF000000D0000900746019042D0F9
:103FB0000C46E9460DF10408802907D308461FF096
:103FC00053FE411F01208840401E0444424649469A
:103FD00020461BF05BFE009C0A2C2CDA06EB8400CA
:103FE000019A40694FF0FF3101FA02F210400CD102
:103FF000641C3069A14008401DD01FF02DFE04460E
:10400000009006EB8000406978B11FF025FE034662
:1040100006EBC411019001EB8000C76B5FB17868BB
:1040200020F00300A84201D2FEE7FEE73946304601
:10403000009A1CF0ADFF3846BDE8FC8710B5044679
:10404000FFF7A6FF416841F002014160606840F05F
:104050000100606010BD10B5044600F024F841680E
:1040600021F002014160606820F00100606010BD35
:1040700070B506460D46084600F015F8040010D04D
:104080002079C0070BD0686880080BD021463046E5
:1040900000F03CF821462846FFF72AFF054628464F
:1040A00070BDFEE7FEE7426800F1080122F0030060
:1040B000001F0844910800D1FEE7704770B506461E
:1040C0000C004FF000001ED0F2B120791546C00759
:1040D0001BD011462046FFF71CFF78B12946204629
:1040E00000F025F805462046FFF752FF686829468C
:1040F00040F0020068603046FFF715FF2046FFF7EA
:10410000AAFF04F1080070BDFEE7FEE77CB5054696
:1041100048680C4620F0030001AA69461BF0B6FD72
:10412000DDE90023214628461CF032FF7CBD2DE945
:10413000F0410D46044600F10801281F0E18606882
:1041400006F1080720F00300401BA0F104083846E0
:104150000421FFF706FB874200D0FEE7606820F0ED
:10416000030108EB0500001D814200D0FEE7307915
:1041700000F0030040EA0800706020F003000C2803
:1041800000D2FEE7207900F003002843606030464B
:10419000FFF754FF3046BDE8F08138B5044612F011
:1041A0003DF9054612F06FF90028204605D0218F11
:1041B000E18616F00EFF012038BD10F0E7FB002865
:1041C00020461ED010F0AEFA218FE08E81420CD036
:1041D0002087E08E00906A461C21204610F018FED1
:1041E0000128E9D1204616F0F4FE284612F057F9CE
:1041F0000428E0D1204615F0BDFA002111F0BAFAEA
:10420000D9E710F01FFCD6E770B510F0FDFD0546AC
:1042100015F0F6FA044628460CF0AEF801462046A2
:10422000BDE8704000221AF06BB800002DE9F04F95
:104230000D4687B00446002115F0D0F960B3294639
:10424000204600F061FA2946204600F06FF8002170
:10425000204616F0F9F805900021204616F096F950
:1042600004900021204615F0C0FF012800D0002056
:1042700080460021204616F0D9FA07460021204644
:1042800016F022F842F2D17906464F450BD1608CE8
:10429000000508D4012707E007B02846BDE8F04F25
:1042A0001C2113F051BE0027204615F015FADFF847
:1042B00078A0834620460021BAF8042016F0BAF907
:1042C000D5F810C0AB682968CDF800C0CDF80C80D7
:1042D000CDE90131C2B239465846059B09F04CFC84
:1042E00028834E4504D1608C400501D4012600E0AE
:1042F0000026204615F0D6F9074620460021BAF8D8
:10430000082016F097F9C2B2686900246B68E96862
:104310008DE81B0031463846049B09F02DFC68836C
:1043200007B0BDE8F08F0000080100202DE9F34F31
:1043300081B00C46019808F0A3FE0646019815F0DE
:10434000CBF98246304600F0E3FF2061400013F0D5
:104350008FFC20602069400013F08AFC002541F6A4
:104360009A79A0603AE036F91510DFF820814945C6
:1043700033D10027DFF818B11FE03946019815F056
:104380002DF95946009016F06CFBA8B9009808F07A
:1043900089FE012810D1009808F07AFEA8420BD1BE
:1043A000009816F00EFB4146404501DA084602E04F
:1043B000009816F006FB80467F1C019815F020F946
:1043C000B842DAD8B8F1000F03DBA16821F81580F4
:1043D00003E0A168002021F815006D1C2069A842A7
:1043E000C1D800252F46284641F69B784B4615E05C
:1043F00036F91010414504DB0D44A5F5F8559B3DF9
:104400000BE0994204D1A16831F81010394403E05F
:10441000A26822F8101039440FB2401C2169814271
:10442000E6D80021019816F00FF82169C1F10102C8
:1044300000FB02A0C01B00B2002800DA002000220E
:104440004FF0FF331146C44611E000BF36F911703A
:1044500067450BDBA7F5F8579B3F3AB210FB02F319
:10446000B3FBF5F3A76827F811300B46491C276901
:104470008F42EBD8002B07DBA91A4143B1FBF5F1C2
:10448000401AA16821F81300BDE8FE8F01E0FFFF8C
:10449000010006002DE9F14F00221146009817F0A7
:1044A00029FD0021009815F0CDFE0446002100985A
:1044B00016F072F820440FFA80F90021009815F0E8
:1044C0006FFF20440FFA80F8009815F02FFE00EBE4
:1044D000090101EB0800DFF898A006B254460098E5
:1044E00015F08EF8074600252AE0009821498068DB
:1044F000006850F82500834616F0B3FAF8B958461C
:1045000016F0C0FD40BB0021584615F033FE18B32D
:10451000012821D002281FD003281DD00021584691
:1045200016F096F958B9BBF81A10BBF81600081A1D
:10453000401C00B24844A04200DB044624B26D1C7B
:10454000BD42D2D3544504D004EB080000B2B042BF
:1045500000DC3046BDE8F88F0098BBF91A10B0F9BE
:104560001600081A411CA142E8DB0C46E6E70000F1
:1045700001E0FFFF010004002DE9F84F0022804612
:10458000114617F0A1FC0021404615F05BFE0446E1
:104590000021404615F0ACFF20440FFA80FA0021BC
:1045A000404615F05DFF20440FFA80F9404615F0B3
:1045B000CBFD00EB090101EB0A00DFF844B105B2C5
:1045C0005C46404615F01CF807460021404615F0B1
:1045D000EEFD01284FF0000644D078E0D8F808003E
:1045E0004849006850F82600009016F03AFAC0BB1F
:1045F000009816F047FD50B10098B8F91810B0F9BE
:104600001400091A481CA0422ADB4C1C28E0002197
:10461000009815F0AFFD58B1032809D0062807D03F
:10462000082805D00021009816F00CF958B118E0C0
:104630000098B8F91810B0F91400081A411CA142EA
:104640000EDB0C460CE00098143000900BF03FF9A4
:104650005044A04204DB00980BF039F900EB0A0447
:1046600024B2761CBE42B9D35C453BD004EB0900B2
:1046700033E000BFD8F808002249006850F826004F
:10468000009016F0EEF908BB009816F0FBFC60BB3A
:104690000021009815F06EFD38B3012825D00428BC
:1046A00023D0072821D00021009816F0D1F868B94E
:1046B0000098143000900BF00AF94844A04204DB43
:1046C00000980BF004F900EB090424B2761CBE42FA
:1046D000D0D35C4506D004EB0A0000B2584501D0A7
:1046E000A84200DC2846BDE8F88F0098B0F9181001
:1046F000B8F91400091A481CA042E6DB4C1CE4E798
:1047000001E0FFFF010004002DE9F84F0C4683464D
:1047100009F0BCF8064600F0FBFD6061400013F0B4
:10472000A7FA60606069400013F0A2FA002541F624
:104730009A79E0603AE036F91500DFF828814845BB
:1047400033D10027DFF820A11FE03946584614F086
:1047500045FF5146009016F084F9A8B9009809F079
:104760001DF9012810D1009809F00EF9A8420BD1CB
:10477000009815F004F84146404501DA084602E089
:10478000009814F0FCFF80467F1C584614F038FF58
:10479000B842DAD8B8F1000F03DBE16821F81580E0
:1047A00003E0E168002021F815006D1C6069A84253
:1047B000C1D800252F46284641F69B784B4615E088
:1047C00036F91010414504DB0D44A5F5F8559B3D25
:1047D0000BE0994204D1E16831F81010394403E04C
:1047E000E26822F8101039440FB2401C616981421E
:1047F000E6D80021584615F0C9FE8146584614F007
:1048000051FF01466069C0F1010209FB0210C01BA3
:1048100000B2002800DA002000224FF0FF331146DA
:10482000C44610E036F9117067450BDBA7F5F85761
:104830009B3F3AB210FB02F3B3FBF5F3E76827F8AE
:1048400011300B46491C67698F42EBD8002B07DB00
:10485000A91A4143B1FBF5F1401AE16821F81300B0
:10486000BDE8F88F01E0FFFF010006001CB50B88D2
:1048700004892344ADF800304B8844892344ADF8C3
:1048800002308B8804892344ADF80430C9884389F9
:104890001944ADF806104369694698471CBD0000ED
:1048A0002DE9FF4F89B0C8781A9CC0070D46002833
:1048B00001D0F84800E0F848069001D0F74800E041
:1048C000F748049001D1F54800E0F5484FF0100397
:1048D0004FF00C0E4FF0080BCDF814006188A28841
:1048E0004FF0000AA1EB0201504609B25246D4F83B
:1048F00010C00FE002EB8207E66803EB870816F8AA
:1049000008805FEAC87809D00BEB8707F65B891B44
:1049100009B2521C9445EDD8002254E00EEB8707F3
:10492000F65B304400B2F4E7E66802EB820703EB83
:10493000870CB146CDF820C016F80C60F60741D1BF
:10494000002872D091FBF0F80EEB8706079639F835
:10495000066006FB08F60FFA86FCCDF800C04FF0A3
:10496000060C0CEB870C042639F90C8006EB870645
:10497000DDF800C039F90660E04500DCC446664554
:1049800004DC009EC446B04500DC6646DDF800C08D
:104990000196664506D0DDF820C04FF00108C246FA
:1049A00049F80C80D4F80C80019E0BEB870728F89F
:1049B0000760D4F80CC0079F3CF80770C01B891B28
:1049C00000B209B2521C26699642ADD8BAF1000F66
:1049D00084D10021099815F002FC012826D0002777
:1049E0000020ADF80800ADF80C0003A902A8CDE93D
:1049F00000012089B4F9022003B2287818991BF02D
:104A00003CFBE878384207D0099814F065FEBDF801
:104A100008100844ADF808000B99099814F0DEFD61
:104A200006464FF4FA682AE1FFE7FEE70127D7E7D9
:104A30009C49304616F015F800286FD10021304609
:104A400015F02CFCF0B34FF00009484621690FE047
:104A5000E26800EB800352F82320B24207D1E168FC
:104A600000EB80020BEB820031F9009002E0401C69
:104A70008142EDD8E878C007708C04D020F48060C3
:104A800040F4006003E020F4006040F48060708433
:104A900006F11400049982468847484528D03046DC
:104AA00016F097FAB08AADF80000F08AADF802006F
:104AB000308BADF80400708BADF8060049465046C7
:104AC000069A00E010E090476A462921304610F02F
:104AD0009FF9304614F094FE3246222110F098F9E6
:104AE000304616F076FA03E0708C20F44060708453
:104AF000002000906878012811D0022817D105996C
:104B000006F114008847B4F90010491C21F0010196
:104B1000081A00EBD07040F34F0007E0A7E00599BA
:104B200006F1140088472188081A00B20090E8783E
:104B3000384208D0049906F114008847BDF80810DF
:104B4000081AADF80800304600216B2215F072FDFE
:104B50000FFA80F9304600216C2215F06BFD0FFA38
:104B600080FA304615F02DFF0190304614F007FE14
:104B70000146C9F3413001280FD129F4C040404516
:104B80000BDCB0F57A7F01DDC0F57A70019A5043F5
:104B9000642290FBF2F00FFA80F9CAF34130012849
:104BA0000ED12AF4C04040450ADCB0F57A7F01DD21
:104BB000C0F57A704843642190FBF1F00FFA80FA57
:104BC000B18A1698F28A411A01EB0900179900B2CE
:104BD0008A1A02EB0A01EA7809B2D207002A02D047
:104BE000BDF9082000E0009A10440FFA80FA01D0C5
:104BF000009801E0BDF9080008440FFA80F95AEA6C
:104C000009011BD0304616F0E4F9B18A01EB0A0025
:104C1000B082318B01EB0A003083F18A01EB09008D
:104C2000F082718B01EB09007083304616F0D1F9E8
:104C300000234A465146304616F072FAE878384268
:104C40000CD1049906F11400884719990844BDF85D
:104C50000C100844BDF80810084406E0BDF80C101C
:104C600019980844BDF80810081AADF80800E8784B
:104C70000BAAC0F38001099808F0CEFC0646002E6E
:104C800004D0DDE90B0188427FF4D2AE0DB0BDE85F
:104C9000F08F000057F900084DF90008F3F80008FC
:104CA0009BF80008010006002DE9F04F91B00E00BE
:104CB00005463FD02E83286808B113F037F806EB7D
:104CC0004600062101EB400012F0A4FF286040B32B
:104CD000022101EB46010144E960042101EB860158
:104CE0000144C5E9010101210024012E1AD0F00080
:104CF000083012F0BDFF814600EB860000F1040889
:104D0000B00000B2A346ADF81000C0F1010280105F
:104D1000ADF812B00FFA82FA5C46CDF828B00690D2
:104D2000ABE0FEE7B4220270E8680480E8684180E6
:104D3000A868048011B0BDE8F08F0027BDF81220EC
:104D4000BAF1000F07DC032101EB42010AEB01007D
:104D50000FFA80FA0CE0BDF810100523521A03EB8D
:104D6000420202EB0A00491E0FFA80FAADF8101059
:104D7000BDF81200401CADF8120004A800F0E9F8DC
:104D800068B1BDF9100006A9821041F827200AA9D0
:104D900000F0030041F827007F1C042FCEDB042F16
:104DA00071D109990698884212D129F8140028F87F
:104DB00014B0DDE90A010144DDE90C201044084487
:104DC00069680855696800010855641C24B252E0FE
:104DD0000799884219D029F8140028F814B06A6895
:104DE0000A9810556A6800011055641C069A20B292
:104DF000521E29F8102028F810B0DDE90B120A44E1
:104E00000D99091D11446A682FE0089929F81400CA
:104E1000884228F814B0DDE90A025946104412D03D
:104E20006A6810556A6800011055641C069A20B221
:104E3000521E29F8102028F81010DDE90C12114438
:104E400008316A6811E00C9A10446A6810556A6863
:104E500000011055641C069A20B2521E29F8102039
:104E600028F810100D996A680C3111546A6809010C
:104E70001154401C04B20BF1010B04A800F069F8B6
:104E800000287FF45AAF40F2D32016FB00F109EB63
:104E90004402881232F9022C824205D108EB440206
:104EA00032F9022C82421AD0A1EB8021B1F5007FA9
:104EB00003DC494341F3CF3106E0C1F5806149434A
:104EC00041F3CF31C1F10F0129F8140028F8140083
:104ED00068680155686809010155641C24B2A01E68
:104EE0000EE000BF38F8102029F8142039F81020FF
:104EF00028F8142069680A5C0A55641C24B2401E14
:104F00000028EFDAEA680021084611801BE0EA6811
:104F100022F81100AB6839F8102023F811200AE0BC
:104F2000AE6839F9102036F81130934200DA1A468B
:104F300026F81120401C38F910208A4201D1A042E5
:104F4000EEDB491C09B2A042E1DB484612F0DCFE70
:104F5000F0E6B0F90210B0F90000814201DC012056
:104F600070470020704717B581B0022A03D8BDF8FA
:104F7000080004B010BDBDF80830BDF80400D90A1F
:104F800001EBD0211F2900D31F2161F3CF20C3F3F0
:104F90004511C0F345142144ADF804003F2900D366
:104FA0003F2161F34A1003F01F0100F01F03194471
:104FB000ADF804001F2900D31F2161F30400ADF8F0
:104FC0000400FF2A07D0DDE901010CF059FA009036
:104FD000BDF80000CDE780B2CBE717B581B0022A5B
:104FE00003D8BDF8080004B010BDBDF80400BDF83A
:104FF0000810C30ACC0A13FB04F35B0963F3CF2048
:1050000000F01F0301F01F0413FB04F35B0963F3BB
:105010000400C0F34513C1F3451113FB01F18909E5
:1050200061F34A10ADF80400FF2A07D0DDE9010161
:105030000CF026FA0090BDF80000D4E780B2D2E769
:1050400017B581B0022A03D8BDF8080004B010BD1E
:10505000BDF80830BDF80400D90AA1EBD021002921
:1050600000DC002161F3CF20C3F34511C0F34514E8
:10507000091BADF80400002900DC002161F34A108F
:1050800003F01F0100F01F03C91AADF80400002946
:1050900000DC002161F30400ADF80400FF2A07D012
:1050A000DDE901010CF0ECF90090BDF80000CDE75E
:1050B00080B2CBE7F8B504460FF0A6FE06462046C0
:1050C0000FF064FE0546304614F09AFB04462B2D83
:1050D00034D00A2D31D111F0A1F910B10079012895
:1050E0002BD06946304614F0F1FB94F82C0010F0F8
:1050F0000C0F30462BD014F0EFFA05460021204665
:1051000015F079F80128BDF9000005EBD5711BD029
:1051100000EB610090FBF5F001B2002900DA0021FC
:10512000608D4FF00102884220461BD019F0E8F84C
:1051300000221C2120460FF06BFEF8BD618DBDE8FA
:10514000F840002219F0DCB8C0EB6100E2E714F08F
:10515000A9FABDF9021000EBD07201EB620191FBDC
:10516000F0F0D9E719F0CCF8F8BD2DE9FF4F89B080
:105170000446169EDDE919577000DDF86090DDF8F1
:1051800028A00FFA80FBB9F1040F22D0B9F1060F65
:105190001FD0B9F1050F5CD0B9F1140F56D1B4F995
:1051A0000000B4F90210CDF80CB006FB01030AEBC5
:1051B00043020092E2884FF00008511A491C0FFA8E
:1051C00081F9A188081A401C0FFA80FA4FEA4A0BAD
:1051D00081E020460AF06DFB01460390384612F04C
:1051E000E1FEB4F90000B4F90280A18806FB0802D0
:1051F000081A401C00B2069040000AEB420A2E46F4
:1052000002900CE051463046029A12F0CBFD06980F
:1052100008F10108DA4406EB40060FFA88F8B4F901
:1052200006004045EEDAB9F1060F0FD100224FF427
:10523000FC60ADF80000114605E035F811308342FE
:1052400000D17A54491C039B9942F6D30DB0BDE8B6
:10525000F08FB4F90010B4F9023006FB031000EB34
:10526000400202EB0A00A288511A491C0AB2B11A84
:1052700001EB41010EB2E188C91A491C0CB20023AE
:1052800017E000210DE090F802C007F801C010F807
:1052900001CB10F8028B0CEB082C25F811C0491C2F
:1052A00009B29142EFDB5B1C05EB42051744304429
:1052B0001BB2A342E5DBC9E75A462846009912F023
:1052C00071FD0099039805EB4A050844009008F128
:1052D00001000FFA80F8C845EEDBDDE90A014A005B
:1052E0000C9902FB0100B4F90010B4F9022006FB8E
:1052F00002110D18002408E052462946384612F0E3
:1053000051FD641C5744354424B24C45F4DB9DE701
:105310000146002041F6FF7200E0401C31F91030D8
:105320009342FAD170471CB5044690F8540000F03F
:10533000010088422DD094F8540011B140F00100D2
:1053400001E020F0010084F8540004F148016846AF
:105350000AF082FA606ABDF80010828A1144ADF842
:105360000010BDF80210C08A0844ADF80200606A5F
:10537000BDF80410808A0844ADF80400606ABDF8E6
:105380000610C08A0844ADF806006946204615F0AC
:1053900043FE1CBD08B5084611460BF0F6FE009012
:1053A000BDF8000008BD2DE9F04F0746C87A89B066
:1053B00015460E46022803D8012009B0BDE8F08F3B
:1053C00018463269B168FDF771F9041EF5D0207DE9
:1053D00000F01F0010F01AFA4FF4807808B1062090
:1053E00011E0207D00F01F000E2806D014280AD0FE
:1053F00010F0FCF930B1052005E030884FF00E09BF
:1054000030B902E00420814606E07088404503D0B0
:1054100000204FF00509A061226A22B129463846D2
:105420001CF0D1F9B7E0A069E0B3294602A80AF060
:10543000DDF9B6F9003013B97088404529D0A88845
:1054400029886A88401A401C01B2E88806F1040CD9
:10545000801A401C02B27088CDE9000C02A8FDF74A
:105460006FF8BDF8080029880844ADF80800BDF8B9
:105470000A1068880844ADF80A00BDF80C002988B5
:105480000844ADF80C00BDF80E1068880844ADF86B
:105490000E0002AA04A8B968FCF705FE00287AD01D
:1054A00004A800E00DE0D7F80880B860CDF80090BF
:1054B0002A4631463846A3690CF07EFEC7F80880BC
:1054C00069E02A4604A8B968FCF7EDFDE0B3BDF831
:1054D0001400BDF81010401A401C0FFA80FB0BEBB3
:1054E0004B0012F0C5FB039004A901A8D7F808A04F
:1054F0000AF07CF9012101A80AF028FABDF9100090
:10550000B5F90010BDF91280401A0690B5F90200F5
:10551000A8EB000536E001AA514607A8FCF7C3FD39
:1055200070B30398009006985B4601B22AB22046F9
:1055300010F078FD01280ED0204610F0C8FC03982A
:1055400012F0E2FB204600E025E010F0C0FC002055
:10555000C7F808A031E707A8B860CDF8009001AA05
:1055600031463846039B0CF027FEBDF80600401C70
:10557000ADF80600BDF80A00401CADF80A006D1C2D
:1055800008F10108BDF916004045C4DAC7F808A0C3
:10559000039812F0B9FB204610F099FC0CE738B5DF
:1055A000054600924C88CB888A8808882146FCF7FB
:1055B000ADF82846BDE838400CF042BB70B5054652
:1055C00010F02CFF0646286B19F06CFB3168898BB4
:1055D000884223D295F83C006C6A10F0030105D094
:1055E0006420012906D0022909D106E0002060F3D9
:1055F0000F0404E060F3174401E060F31F643046D9
:1056000010F0D1FF214628460CF0E6F930B1002217
:105610001C2128460FF0FCFB012803D119F048FBA0
:105620002863012070BD00002DE9F04F99B00746B6
:1056300014468A4614A80CF09BFB4FF4A021384670
:1056400014F0A1FD9DF85D1060F382018DF85D10EE
:10565000A1882088091A491C09B201EBD1714E10AA
:105660003044ADF86000608800213044ADF862003D
:10567000384614F059FE8146514602A813F0ECFD5D
:1056800014A80A904FF400300F902F480390002088
:10569000049007F130008346FDF7E2F84EE02079F0
:1056A000032847D1208BADF85000208AADF8520076
:1056B0006079FD2801D9484602E010FB09F0000A94
:1056C0008DF85C002568B5F92030E88B184400900F
:1056D000D5E90512A06812F07FFA8046B5F92030AE
:1056E000E88B18440090D5E90512E06812F074FACE
:1056F0001FFA88F5ADF854501FFA80F8ADF85680BF
:10570000608B02AA3044ADF8440018A80B901A210F
:10571000139438460FF07CFBCDE90058BDF84430B7
:1057200018AA14A950460CF013FB02AA1B213846F4
:105730000FF06EFB21465846FDF78FF80400AED1FE
:1057400019B0BDE8F08F0000C88302082DE9F74FBB
:10575000C878A0B00C4602287DD9114601A80AF0ED
:105760008DF8B4F92000012829DD94F82200FD28E5
:1057700025D3208818B394F82300BDF804104008FE
:10578000C0F380021144ADF80410BDF80610C0F358
:1057900040000844ADF8060094F82310BDF8080056
:1057A0004908C1F3C001401AADF8080094F823106D
:1057B000BDF80A00C1F34001401AADF80A00209874
:1057C00001A9826805A8FCF76EFC002843D0E07BA5
:1057D00010F0070619D0E088ADF80000BDF8000011
:1057E0006189884200D1002601A80DF037FA0746EA
:1057F0001C210EA8FAF738FDA0788DF85100BDF8ED
:105800000000ADF840001FB105E060680090E5E7DA
:10581000208800B9EEB3E078FD2800D3FF2083464E
:10582000BDF80800BDF80410401A401C0FFA80FAB9
:10583000BDF80A00BDF80610401A401C01B28946A6
:105840005046CA4500DB0846B4F90050B5EB600F7E
:1058500000DB451000E043E0BDF81810BDF814006F
:10586000081A401C0FFA80F84FF0FF301D900020FE
:105870000790002D00DC87B1404612F0F9F907903F
:1058800000232A4601A916A80DF054FC002116A8F1
:1058900000E01CE00DF002F81D90BDF81400ADF81A
:1058A0000C00BDF81800ADF810000798119003A87F
:1058B0000E901390FF208DF850004A465146A01DCF
:1058C0000FF0E2FD040018D0022E0CD015E001A864
:1058D0000E90E0788DF850000EA920980DF0F0FEA3
:1058E00023B0BDE8F08FBDF91410A06800EB4100B3
:1058F000BDF90410A0EB41000F90002F7DD0BDF941
:10590000165027E02FB2ADF80E70ADF81270424677
:105910005946079812F0E6FABDF9141043463A4684
:1059200007980DF05DF98DF84800012802D102209A
:105930008DF84800012E08D1BDF90610A068691A3B
:1059400000EB41000088ADF840000EA920980DF052
:10595000B7FE6D1CBDF91A00A842D3DAB7E000BF4C
:10596000BDF80600BDF9161038440FFA80F9BDF8ED
:105970000A00C01B0FFA80FA494503DDBDF91A1071
:10598000514544DB42465946079812F0ABFABDF93F
:105990000C1043464A4607980DF022F98DF848004E
:1059A000012802D102208DF84800BDF916104945A2
:1059B00013DCADF80E90ADF81290012E09D1BDF9AF
:1059C0000620A168A9EB020001EB40000088ADF8B9
:1059D00040000EA920980DF073FEBDF91A10514534
:1059E00015DBADF80EA0ADF812A0012E0BD1BDF95C
:1059F0000600A268AAEB000000E009E002EB40000C
:105A00000088ADF840000EA920980DF059FE7F1CCB
:105A1000AF42A5DBBDF80400ADF87800BDF8080082
:105A2000ADF87C00BDF806002844ADF87A00BDF85A
:105A30000A00401BADF87E001EA80DF00FF90746C6
:105A400030430CD001208DF84800BDF90A008DF8D4
:105A500050B0A0EB0509BDF90600054435E0BDF8DE
:105A600006008DF850B02844ADF80E00BDF80A00CD
:105A70000EA9401BADF812000020119020980DF0E7
:105A80001FFE24E06FB142465946079812F02AFAE9
:105A9000BDF9141043462AB207980DF0A1F88DF80D
:105AA0004800ADF80E50ADF81250012E08D1BDF9E6
:105AB0000600A168281A01EB40000088ADF84000FC
:105AC0000EA920980DF0FCFD6D1C4D45DADD079800
:105AD00008B112F019F91D98401C05D01D980DF061
